:1000000071C00000C5C0000006C1000073C0000040
:1000100071C000006FC000006DC000006BC0000028
:1000200069C0000067C0000065C0000063C0000038
:1000300061C000005FC000005DC000005BC0000048
:1000400059C0000057C0000049C1000053C0000063
:1000500051C000004FC000004DC000004BC0000068
:1000600049C0000047C0000045C0000043C0000078
:1000700041C000003FC000003DC000003BC0000088
:1000800039C0000037C0000035C000001E022A023F
:100090002A022A022A022A022A022A022A022A0200
:1000A0002A022A022A022A022A022A022A022A02F0
:1000B0002A022A022A022A022A022A022A022A02E0
:1000C0002A022A022A022A022A022A028E019A01FE
:1000D000A601B201BE01CA01D601E201EE01FA0198
:1000E0000602120211241FBECFEFD0E1DEBFCDBF4A
:1000F00002D012C285CF8FEF8ABB83EF87BB789483
:1001000060E08CE090E0BBD180E0D7D185E38A95B8
:10011000F1F7000083E089BF10926A008FB5826218
:100120008FBD8EB58A618EBD88EE93E097BD86BD8A
:10013000539882B3836082BBFCCF1BBA18BA10926B
:10014000790010927800089580E88BBB18BA089562
:1001500080EC8BBB18BA089580E28BBB18BA089567
:1001600080E38BBB18BA089588E08BBB18BA08955A
:100170008CE08BBB18BA089582E08BBB18BA089547
:1001800083E08BBB18BA089583E088BB1BBA08953F
:100190001F920F920FB60F9211240BB60F922F934E
:1001A0003F934F935F936F937F938F939F93AF93FF
:1001B000BF93EF93FF93E8DF539A60E089E787D11D
:1001C00060E08AE084D160E08DE081D12FEF80E7AC
:1001D00092E0215080409040E1F700C0000018BA42
:1001E0001092790010927800FF91EF91BF91AF913A
:1001F0009F918F917F916F915F914F913F912F913F
:100200000F900BBE0F900FBE0F901F90189582E1BC
:1002100088BB1BBA08951F920F920FB60F9211243C
:100220000BB60F922F933F934F935F936F937F93F0
:100230008F939F93AF93BF93EF93FF93E8DF539A0E
:1002400060E08AE744D160E08AE041D160E08DE07F
:100250003ED12FEF80E792E0215080409040E1F7BF
:1002600000C0000018BA1092790010927800FF9137
:10027000EF91BF91AF919F918F917F916F915F911E
:100280004F913F912F910F900BBE0F900FBE0F908B
:100290001F9018951BBA18BA8FB582628FBD8EB5A4
:1002A0008A618EBD88EE93E097BD86BDC59A8AE8C7
:1002B00092E099BD88BD08951BBA18BA8FB58262C5
:1002C0008FBD8EB58A618EBD88EE93E097BD86BDE9
:1002D000C79A8AE892E099BD88BD08951F920F924F
:1002E0000FB60F9211240BB60F922F933F934F939B
:1002F0005F936F937F938F939F93AF93BF93EF938E
:10030000FF9380E0F2D090E0FC01E154F109EC327F
:10031000F10508F09FC0EA5BFF4FF5C015DF539A67
:1003200060E081E6D4D060E08AE0D1D060E08DE08A
:10033000CED092C00DDF539A60E082E6C8D060E074
:100340008AE0C5D060E08DE0C2D086C005DF539A58
:1003500060E083E6BCD060E08AE0B9D060E08DE088
:10036000B6D07AC0FDDE539A60E084E6B0D060E09B
:100370008AE0ADD060E08DE0AAD06EC0F5DE539A81
:1003800060E085E6A4D060E08AE0A1D060E08DE086
:100390009ED062C0EDDE539A60E086E698D060E0C1
:1003A0008AE095D060E08DE092D056C0E5DE539AA9
:1003B00060E087E68CD060E08AE089D060E08DE084
:1003C00086D04AC0DDDE539A60E088E680D060E0E7
:1003D0008AE07DD060E08DE07AD03EC0D5DE539AD1
:1003E00060E089E674D060E08AE071D060E08DE082
:1003F0006ED032C00CDF539A60E08AE668D060E0CD
:100400008AE065D060E08DE062D026C043DF539A79
:1004100060E08BE65CD060E08AE059D060E08DE07F
:1004200056D01AC049DF539A60E08CE650D060E0A5
:100430008AE04DD060E08DE04AD00EC07EDE539A57
:1004400060E081E444D060E08AE041D060E08DE08B
:100450003ED002C0539871DEFF91EF91BF91AF91F2
:100460009F918F917F916F915F914F913F912F91CC
:100470000F900BBE0F900FBE0F901F9018957894A1
:10048000662379F09093980080939900EAE9F0E070
:10049000808188618083EDE9F0E0808186608083DF
:1004A00008959093900089B98AB188618AB9E5E985
:1004B000F0E08081866080830895882331F0EAE946
:1004C000F0E08081806880830895579A08956623BC
:1004D00041F0EBE9F0E0908195FFFDCF80939C0027
:1004E00008955D9BFECF8CB90895882341F0EBE918
:1004F000F0E080818823ECF780919C0008955F9B59
:10050000FECF8CB10895EE0FFF1F0024001C0BBE20
:0C0510000790F691E02D0994F894FFCFBD
:00000001FF
