S011000066696E616C5F7073322E7372656395
S113000012C02CC02BC02AC029C028C027C026C0BB
S113001025C024C023C022C021C020C01FC01EC0D0
S11300201DC01CC01BC011241FBECFE5D4E0DEBF21
S1130030CDBF10E0A0E6B0E0EEE3F9E002C0059029
S11300400D92AA38B107D9F721E0AAE8B0E001C0BF
S11300501D92A730B207E1F71DD06FC4D1CFEAEEED
S1130060F0E0838180958093DB0084818095809388
S11300700301858180958093FF008681809580931C
S11300800601878180958093020180858095809305
S1130090000108956ED383EF91E00197F1F700C05A
S11300A000008CE090E03CD442D490E19A95F1F7C2
S11300B000C0CAE8D0E00F2EF0ED8F2EF0E09F2EA6
S11300C0F02D0F2EF2EDAF2EF0E0BF2EF02D0F2EFF
S11300D0FEECCF2EF0E0DF2EF02D0F2EFCECEF2EF9
S11300E0F0E0FF2EF02D0AEC10E007D4E6EAEA95E2
S11300F0F1F700C0B4DF8091DB0083FF0CC088817E
S11301009981892B51F481E414D4888199810196D1
S11301109983888302C0198218828091DB0084FF4E
S113012010C08091030184FF0CC08A819B81892BBC
S113013071F482E4FED38A819B8101969B838A8336
S113014002C01B821A828091DB0084FF10C0809160
S1130150030185FF0CC08C819D81892B71F483E49C
S1130160E8D38C819D8101969D838C8302C01D827E
S11301701C828091DB0084FF10C08091030186FF04
S11301800CC08E819F81892B71F484E4D2D38E813B
S11301909F8101969F838E8302C01F821E8280915D
S11301A0DB0084FF10C080910301882364F48885F8
S11301B09985892B51F485E4BCD38885998501966A
S11301C09987888702C0198618868091DB0086FF8C
S11301D010C08091030184FF0CC08A859B85892B04
S11301E071F486E4A6D38A859B8501969B878A87CA
S11301F002C01B861A868091DB0086FF10C08091A6
S1130200030185FF0CC08C859D85892B71F487E4DF
S113021090D38C859D8501969D878C8702C01D8611
S11302201C868091DB0086FF10C08091030186FF4D
S11302300CC08E859F85892B71F488E47AD38E85D2
S11302409F8501969F878E8702C01F861E86809198
S1130250DB0086FF10C080910301882364F4888941
S11302609989892B51F489E464D388899989019601
S1130270998B888B02C0198A188A8091DB0086705A
S1130280863071F4F40180819181892B61F489E4D1
S113029050D3F4018081918101969183808303C0BE
S11302A0F401118210828091DB00882384F4809110
S11302B0030184FF0CC08A899B89892B71F48AE429
S11302C038D38A899B8901969B8B8A8B02C01B8AAF
S11302D01A8A8091DB00882384F48091030186FFCD
S11302E00CC08C899D89892B71F48BE422D38C8971
S11302F09D8901969D8B8C8B02C01D8A1C8A8091DE
S1130300DB00882384F48091030185FF0CC08E896F
S11303109F89892B71F48CE40CD38E899F89019673
S11303209F8B8E8B02C01F8A1E8A8091DB008823DC
S113033084F480910301882364F4888D998D892B3A
S113034051F48DE4F6D2888D998D0196998F888F1A
S113035002C0198E188E809103018471843161F476
S11303608A8D9B8D892B51F481E6E3D28A8D9B8DF6
S113037001969B8F8A8F02C01B8E1A8E8091030177
S11303808474843461F48C8D9D8D892B51F482E6C0
S1130390D0D28C8D9D8D01969D8F8C8F02C01D8E29
S11303A01C8E809103018472843261F48E8D9F8D42
S11303B0892B51F483E6BDD28E8D9F8D01969F8F3C
S11303C08E8F02C01F8E1E8E809103018478843824
S11303D061F488A199A1892B51F484E6AAD288A159
S11303E099A1019699A388A302C019A218A2809189
S11303F0030182FF10C08091DB0085FF0CC08AA13D
S11304009BA1892B71F485E694D28AA19BA10196C4
S11304109BA38AA302C01BA21AA28091030182FF9C
S113042010C08091DB00882364F48CA19DA1892BEA
S113043051F486E67ED28CA19DA101969DA38CA346
S113044002C01DA21CA2809103018871883161F44D
S11304508EA19FA1892B51F487E66BD28EA19FA117
S113046001969FA38EA302C01FA21EA28091030126
S11304708874883461F488A599A5892B51F488E699
S113048058D288A599A5019699A788A702C019A64C
S113049018A6809103018872883261F48AA59BA50D
S11304A0892B51F489E645D28AA59BA501969BA781
S11304B08AA702C01BA61AA68091030188788838EF
S11304C061F48CA59DA5892B51F48AE632D28CA5C2
S11304D09DA501969DA78CA702C01DA61CA6809170
S11304E0030183FF10C08091DB0085FF0CC08EA543
S11304F09FA5892B71F48BE61CD28EA59FA501962E
S11305009FA78EA702C01FA61EA68091030183FF8A
S113051010C08091DB00882364F488A999A9892BF1
S113052051F48CE606D288A999A9019699AB88ABB7
S113053002C019AA18AA809103018271823161F460
S11305408AA99BA9892B51F480E3F3D18AA99BA999
S113055001969BAB8AAB02C01BAA1AAA8091030125
S11305608272823261F48CA99DA9892B51F481E3B2
S1130570E0D18CA99DA901969DAB8CAB02C01DAAAC
S11305801CAA809103018274823461F48EA99FA90C
S1130590892B51F482E3CDD18EA99FA901969FABFB
S11305A08EAB02C01FAA1EAA8091030182788238F2
S11305B061F488AD99AD892B51F483E3BAD188AD48
S11305C099AD019699AF88AF02C019AE18AE80916B
S11305D0030181FF10C08091DB0084FF0CC08AAD51
S11305E09BAD892B71F484E3A4D18AAD9BAD0196B4
S11305F09BAF8AAF02C01BAE1AAE8091030181FF8C
S113060010C08091DB0086FF0CC08CAD9DAD892BA2
S113061071F485E38ED18CAD9DAD01969DAF8CAF09
S113062002C01DAE1CAE8091030181FF12C08091F7
S1130630DB0085FF0EC0F50180819181892B61F477
S113064084E577D1F401808191810196918380833F
S113065003C0F401118210828091030180FF0EC057
S113066084FF0CC02EAD3FAD232B71F486E361D122
S11306708EAD9FAD01969FAF8EAF02C01FAE1EAE72
S11306808091030180FF10C086FF0EC0F8018081B5
S11306909181892BE1F587E34CD1F8018081918127
S11306A001969183808303C0F801118210828091A6
S11306B0030180FF10C085FF0EC0F7018081918186
S11306C0892B41F588E335D1F70180819181019629
S11306D09183808303C0F70111821082809103010A
S11306E080FF11C088237CF4F60180819181892BDD
S11306F009F0FBCC89E31DD1F6018081918101963B
S113070091838083F2CCF60111821082EECC809129
S11307100301D1CF80910301E5CF8FB9779BFECF41
S113072080E58A95F1F78FB10895CF92DF92EF9229
S1130730FF920F931F93CF93DF93662389F07C017D
S11307406C01C60ED11CEC018E010E191F09899192
S1130750E4DFF801E651FF4F8083CC15DD05A1F7F6
S1130760DF91CF911F910F91FF90EF90DF90CF9089
S11307700895CF93DF93CDB7DEB7AB970FB6F89458
S1130780DEBF0FBECDBF87B38C6287BBBC98C49A53
S11307908DE78DB985E0E0E6F0E0DE011196019089
S11307A00D928A95E1F789E0E5E6F0E0DE01169620
S11307B001900D928A95E1F789E0EEE6F0E0DE0122
S11307C01F9601900D928A95E1F789E0E7E7F0E042
S11307D0DE01589601900D928A95E1F7C298109225
S11307E004011092DA001092010165E0CE01019635
S11307F09CDFC29A8FEC97E00197F1F700C00000EC
S11308008FEC97E00197F1F700C00000C2981092B6
S113081004011092DA001092010169E0CE010696FB
S113082084DFC29A8FEC97E00197F1F700C00000D3
S11308308FEC97E00197F1F700C00000C298109286
S113084004011092DA001092010169E0CE010F96C2
S11308506CDFC29A8FEC97E00197F1F700C00000BB
S11308608FEC97E00197F1F700C00000C298109256
S113087004011092DA001092010169E0CE01489659
S113088054DFC29A8FEC97E00197F1F700C00000A3
S11308908FEC97E00197F1F700C0000089E0E0E8F1
S11308A0F0E0DE01919601900D928A95E1F71BA686
S11308B01AA68AA59BA50A97BCF4EAA5FBA5AAA536
S11308C0BBA581E290E08C0F9D1FA80FB91F8C91EE
S11308D0EF51FF4F80838AA59BA501969BA78AA70A
S11308E08AA59BA50A974CF3AB960FB6F894DEBF86
S11308F00FBECDBFDF91CF910895C298109204012D
S11309001092DA001092010169E081EE90E00DDFAF
S1130910C29A8FE99FE00197F1F700C000000895A3
S113092090BD89B988E18AB98EE880BD0895579A47
S111093008955D9BFECF8CB90895F894FFCF17
S113093E0143000100014400010000000000014DCC
S113094E000001FFFFFFFF014300005A5A5A5A5A92
S10D095E014200FF00000000000049
S9030000FC
