S018000064726976696E675F7374656172696E672E737265635D
S113000065C0000024C2000030C200003CC20000F1
S113001048C2000054C2000060C200006CC200006C
S113002078C2000070C000006EC000006CC0000008
S11300306AC0000068C0000066C0000064C0000020
S113004062C0000060C000005EC000005CC0000030
S11300505AC0000058C0000056C0000054C0000040
S113006052C0000050C000004EC000004CC0000050
S11300704AC0000048C0000046C0000044C0000060
S113008042C0000040C000003EC0000012010C014C
S113009006010001FA00F400EE00E800E200DC00D2
S11300A0D600D000CA00C400BE00B800A801A20156
S11300B09C01960190018A0184017E0178017201FC
S11300C06C01660160015A0154014E0111241FBEE6
S11300D0CFEFD0E1DEBFCDBF11E0A0E0B1E0ECEAAC
S11300E0F6E000E00BBF02C007900D92A031B1070B
S11300F0D9F721E0A0E1B1E001C01D92A131B2071E
S1130100E1F733D1D1C27CCF8FEF80936A008ABFED
S113011089BF0895CF92DF92EF92FF920F931F93BE
S1130120CF93DF93EC016B017A01890160E081E6F2
S11301301CD2CC0FDD1FCC0DDD1DCC0FDD1FCE0D71
S1130140DF1DCC0FDD1FC00FD11F8AE18A95F1F7A7
S113015000C0BE010D2E000C880B990B40E021D28B
S1130160C031D10508F064C0FE01EA5BFF4F71C2E3
S11301708FEF85BB60E086E4F8D15DC08FEE85BB70
S113018060E085E4F2D157C08FED85BB60E084E484
S1130190ECD151C08FEC85BB60E083E4E6D14BC069
S11301A08FEB85BB60E082E4E0D145C08FEA85BB7C
S11301B060E081E4DAD13FC08FE985BB60E087E489
S11301C0D4D139C08FE885BB60E088E4CED133C098
S11301D08FE785BB60E089E4C8D12DC08FE685BB7D
S11301E060E08AE4C2D127C08FE585BB60E08BE480
S11301F0BCD121C08FE485BB60E08CE4B6D11BC0C8
S11302008FE385BB60E08DE4B0D115C08FE285BB80
S113021060E08EE4AAD10FC08FE185BB60E086E583
S1130220A4D109C08FE085BB60E089E69ED103C0FC
S113023060E087E79AD1DF91CF911F910F91FF90F2
S1130240EF90DF90CF900895CF92DF92EF92FF92DC
S11302500F931F93CF93DF93EC016B017A01890114
S113026060E087E682D1CC0FDD1FCC0DDD1DCC0F05
S1130270DD1FCE0DDF1DCC0FDD1FC00FD11FBE0152
S11302800D2E000C880B990B40E08BD1C031D105A9
S113029008F062C0FE01EA5AFF4FDBC180EF85BB64
S11302A060E081E662D158C080EE85BB60E082E602
S11302B05CD152C080ED85BB60E083E656D14CC072
S11302C080EC85BB60E084E650D146C080EB85BB02
S11302D060E085E64AD140C080EA85BB60E086E6FE
S11302E044D13AC080E985BB60E087E63ED134C0A2
S11302F080E885BB60E088E638D12EC080E785BB06
S113030060E089E632D128C080E685BB60E08AE6F9
S11303102CD122C080E585BB60E08BE626D11CC0D1
S113032080E485BB60E08DE620D116C080E385BB08
S113033060E08EE61AD110C080E285BB60E08FE6F3
S113034014D10AC080E185BB60E080E70ED104C00F
S113035015BA60E081E709D1DF91CF911F910F9128
S1130360FF90EF90DF90CF90089512B811BA8FEFFD
S113037084BB7894C9DE60E083E390E0D8D08AE15E
S11303808A95F1F700C061E083E390E0D0D08AE180
S11303908A95F1F700C0C1E0D0E080E0F4D080930A
S11303A01001833691F420910801309109014091A4
S11303B00A0150910B0160910C0170910D01809123
S11303C00E0190910F01A6DEE8CF8237E1F520916E
S11303D000013091010140910201509103016091AB
S11303E004017091050180910601909107012CDFB1
S11303F08091060190910701892B79F6809104017F
S113040090910501892B49F6809102019091030195
S1130410892B09F0C2CF8091000190910101892BB1
S113042009F0BBCFD0930701C0930601D093050117
S1130430C0930401D0930301C0930201D09301013E
S1130440C0930001AACF60E083E58FD0A6CF1F92AE
S11304500F920FB60F92112410920F0110920E01F9
S11304600F900FBE0F901F9018951F920F920FB60A
S11304700F92112410920D0110920C010F900FBED7
S11304800F901F9018951F920F920FB60F92112480
S113049010920B0110920A010F900FBE0F901F9043
S11304A018951F920F920FB60F9211241092090102
S11304B0109208010F900FBE0F901F9018951F9275
S11304C00F920FB60F921124109207011092060199
S11304D00F900FBE0F901F9018951F920F920FB69A
S11304E00F92112410920501109204010F900FBE77
S11304F00F901F9018951F920F920FB60F92112410
S113050010920301109202010F900FBE0F901F90E2
S113051018951F920F920FB60F9211241092010199
S1130520109200010F900FBE0F901F9018957894B1
S1130530662379F09093980080939900EAE9F0E0BB
S1130540808188618083EDE9F0E08081866080832A
S113055008959093900089B98AB188618AB9E5E9D0
S1130560F0E08081866080830895662341F0EBE9A2
S1130570F0E0908195FFFDCF80939C0008955D9BF2
S1130580FECF8CB90895882341F0EBE9F0E0808137
S11305908823ECF780919C0008955F9BFECF8CB17B
S11305A00895BF92CF92DF92EF92FF920F931F9321
S11305B0CF93DF936B017C01C42F99235CF4642FE8
S11305C08DE2D3DFF094E094D094C094C11CD11C8C
S11305D0E11CF11C8AE0C816D104E104F1047CF0AA
S11305E0C701B6012AE030E040E050E016D06901CE
S11305F07A01B62E4C2FC701B601D3DFCB2C6C2F5A
S113060080E38C0DB2DFDF91CF911F910F91FF90AA
S1130610EF90DF90CF90BF900895052E97FB16F4CE
S113062000940FD057FD05D01DD007FC02D046F42E
S113063008C050954095309521953F4F4F4F5F4FDF
S1130640089590958095709561957F4F8F4F9F4F3A
S11306500895EE0FFF1F0024001C0BBE0790F691B7
S1130660E02D0994A1E21A2EAA1BBB1BFD010DC0AB
S1130670AA1FBB1FEE1FFF1FA217B307E407F5074E
S113068020F0A21BB30BE40BF50B661F771F881F2A
S1130690991F1A9469F760957095809590959B01C0
S10F06A0AC01BD01CF010895F894FFCF18
S11306AC0100010001000100010001000100010032
S9030000FC
