S01400006368697261675F73697227732E737265635B
S113000052C00000ABC10000E2C1000019C20000F0
S113001050C20000C0C2000085C20000F5C200004A
S1130020DBC300005DC000005BC0000059C00000DD
S113003057C0000055C0000053C0000051C000006C
S11300404FC000004DC0000018C3000049C00000AC
S113005047C0000045C0000043C0000041C000008C
S11300603FC000003DC000003BC0000039C000009C
S113007037C0000035C0000033C0000031C00000AC
S11300802FC000002DC000002BC00000CB035F0375
S1130090680371037A0383038C0395039E03A70308
S11300A0B103C303BB0311241FBECFEFD0E1DEBFF6
S11300B0CDBF11E0A0E0B1E0E0EEF8E000E00BBF5E
S11300C002C007900D92A030B107D9F721E0A0E05B
S11300D0B1E001C01D92A130B207E1F731D0FEC3F7
S11300E08FCF19BC18BC109279001092780010922E
S11300F08700109286001BBC1ABC08958FB58A6ACB
S11301008FBD8EB58A618EBD80E197E297BD86BDB5
S11301100895EBE8F0E0808182688083EAE8F0E00B
S113012080818A61808380E197E29093810080934B
S11301308000089510926A001ABE8FEF89BF089557
S11301408FEF8093640087BB84BB9FE09ABB87BB1F
S1130150789460E088E090E074D380E090D38AE102
S11301608A95F1F700C0CADFD4DFE4DF53989FE03B
S113017080EF92BB83B9FDCF82309105F1F01CF47E
S1130180019739F008958330910559F10497E9F105
S1130190089588E18093650083E088BB84EC99E04E
S11301A099BD88BD90937900809378009BBD8ABDEA
S11301B09093870080938600089588E1809365007A
S11301C083E088BB88E893E199BD88BD909379006A
S11301D0809378009BBD8ABD9093870080938600AE
S11301E0089588E18093650083E088BB80E797E108
S11301F099BD88BD90937900809378009BBD8ABD9A
S11302009093870080938600089588E18093650029
S113021083E088BB8CE49DE199BD88BD909379000F
S1130220809378009BBD8ABD90938700809386005D
S1130230089582309105F1F01CF4019739F0089586
S11302408330910559F10497E9F1089587EE80937D
S113025065008CEF88BB84EC99E099BD88BD9093D0
S11302607900809378009BBD8ABD9093870080932A
S11302708600089588E18093650083E088BB88E860
S113028093E199BD88BD90937900809378009BBDDC
S11302908ABD9093870080938600089588E18093B7
S11302A0650083E088BB80E797E199BD88BD9093A2
S11302B07900809378009BBD8ABD909387008093DA
S11302C08600089588E18093650083E088BB8CE410
S11302D09DE199BD88BD90937900809378009BBD82
S11302E08ABD909387008093860008958C34C9F466
S11302F0E5E6F0E080E1808382E088BB8081877F4F
S11303008083C09888E893E199BD88BD9093790073
S1130310809378009BBD8ABD90938700809386006C
S11303200895E5E6F0E088E0808381E088BB8FEE05
S113033080838DEF88BB88E893E199BD88BD909355
S11303407900809378009BBD8ABD90938700809349
S113035086000895A89AA998D89A08951F920F9292
S11303600FB60F9211240BB60F922F933F934F9316
S11303705F936F937F938F939F93AF93BF93EF9309
S1130380FF93E8DF539A60E080E383D22FEF81EE9E
S113039094E0215080409040E1F700C00000D898DC
S11303A0FF91EF91BF91AF919F918F917F916F9149
S11303B05F914F913F912F910F900BBE0F900FBE05
S11303C00F901F901895A99AA898D89A08951F92EB
S11303D00F920FB60F9211240BB60F922F933F93E7
S11303E04F935F936F937F938F939F93AF93BF9339
S11303F0EF93FF93E8DF539A60E081E34AD22FEF53
S113040081EE94E0215080409040E1F700C000006C
S1130410D898FF91EF91BF91AF919F918F917F9168
S11304206F915F914F913F912F910F900BBE0F9061
S11304300FBE0F901F901895AA9AAB98D99A089559
S11304401F920F920FB60F9211240BB60F922F9397
S11304503F934F935F936F937F938F939F93AF9348
S1130460BF93EF93FF93E8DF539A60E082E311D2E6
S11304702FEF80E792E0215080409040E1F700C0E8
S11304800000D998FF91EF91BF91AF919F918F9107
S11304907F916F915F914F913F912F910F900BBE80
S11304A00F900FBE0F901F901895AB9AAA98D99AE7
S11304B008951F920F920FB60F9211240BB60F924C
S11304C02F933F934F935F936F937F938F939F9358
S11304D0AF93BF93EF93FF93E8DF539A60E083E316
S11304E0D8D12FEF80E792E0215080409040E1F78F
S11304F000C00000D998FF91EF91BF91AF919F91F7
S11305008F917F916F915F914F913F912F910F90B8
S11305100BBE0F900FBE0F901F901895AC9AAD981C
S1130520DA9A08951F920F920FB60F9211240BB608
S11305300F922F933F934F935F936F937F938F9378
S11305409F93AF93BF93EF93FF93E8DF539A60E0D9
S113055085E39FD12FEF80E792E0215080409040C7
S1130560E1F700C00000DA98FF91EF91BF91AF91DD
S11305709F918F917F916F915F914F913F912F91B7
S11305800F900BBE0F900FBE0F901F901895AD9A51
S1130590AC98DA9A08951F920F920FB60F92112415
S11305A00BB60F922F933F934F935F936F937F9369
S11305B08F939F93AF93BF93EF93FF93E8DF539A87
S11305C060E084E366D12FEF80E792E02150804021
S11305D09040E1F700C00000DA98FF91EF91BF91DD
S11305E0AF919F918F917F916F915F914F913F91C7
S11305F02F910F900BBE0F900FBE0F901F90189568
S1130600AE9AAF98DB9A08951F920F920FB60F928D
S113061011240BB60F922F933F934F935F936F93D5
S11306207F938F939F93AF93BF93EF93FF93E8DFF1
S1130630539A60E086E32DD12FEF80E792E02150BA
S113064080409040E1F700C00000DB98FF91EF91FB
S1130650BF91AF919F918F917F916F915F914F91D6
S11306603F912F910F900BBE0F900FBE0F901F90D4
S11306701895AF9AAE98DB9A08951F920F920FB611
S11306800F9211240BB60F922F933F934F935F93C6
S11306906F937F938F939F93AF93BF93EF93FF9346
S11306A080E005D18093000190E0FC01E154F10960
S11306B0ED30F10508F077C0EA5BFF4F06C181E039
S11306C090E05ADD539A60E080910001E2D071C05D
S11306D082E090E051DD539A60E080910001D9D02E
S11306E068C083E090E048DD539A60E080910001A7
S11306F0D0D05FC084E090E03FDD539A60E0809109
S11307000001C7D056C081E090E093DD539A60E0C9
S113071080910001BED04DC082E090E08ADD539A02
S113072060E080910001B5D044C083E090E081DDB9
S1130730539A60E080910001ACD03BC084E090E02B
S113074078DD539A60E080910001A3D032C002DECC
S113075073DEE4DE55DF539A60E08091000199D0A6
S113076028C031DEA2DE13DF84DF539A60E080917B
S113077000018FD01EC08CE4B9DD539A60E08091F3
S1130780000187D016C082E5B1DD539A60E0809104
S113079000017FD00EC0A5DC1BBA539A60E08091A3
S11307A0000177D006C09DDC1BBA539A60E08AE74B
S11307B070D0FF91EF91BF91AF919F918F917F91F5
S11307C06F915F914F913F912F910F900BBE0F90BE
S11307D00FBE0F901F9018951F920F920FB60F9295
S11307E011240BB60F922F933F934F935F936F9304
S11307F07F938F939F93AF93BF93EF93FF9339DFCF
S1130800539A60E087E345D02FEF80E792E02150D0
S113081080409040E1F700C00000DB98FF91EF9129
S1130820BF91AF919F918F917F916F915F914F9104
S11308303F912F910F900BBE0F900FBE0F901F9002
S113084018957894662379F0909398008093990092
S1130850EAE9F0E0808188618083EDE9F0E080815D
S11308608660808308959093900089B98AB18861E5
S11308708AB9E5E9F0E08081866080830895882361
S113088031F0EAE9F0E08081806880830895579A26
S11308900895662341F0EBE9F0E0908195FFFDCFE8
S11308A080939C0008955D9BFECF8CB908958823A6
S11308B041F0EBE9F0E080818823ECF780919C0023
S11308C008955F9BFECF8CB10895EE0FFF1F0024A7
S11308D0001C0BBE0790F691E02D0994F894FFCF0D
S9030000FC
